:020000022000DC
:1060000000000120196202000162020089190400E7
:10601000056202000762020009620200000000003F
:106020000000000000000000000000000B62020001
:106030000D620200000000000F6202001162020007
:106040008D9303001362020065AF030061C2030079
:1060500013620200F9AC0300E99F0300136202001F
:106060001362020013620200136202001362020054
:10607000136202009DB30300136202001362020068
:10608000136202006DFA0300136202001362020041
:106090001362020013620200D508050013620200B9
:1060A000136202001362020013620200E9BA0300E5
:1060B00013620200136202000000000000000000F2
:1060C00013620200136202001362020013620200F4
:1060D000136202001362020013620200000000005B
:1060E00000000000000000000000000000000000B0
:1060F00000000000000000000000000000000000A0
:10610000000000000000000000000000000000008F
:10611000000000000000000000000000000000007F
:10612000000000000000000000000000000000006F
:10613000000000000000000000000000000000005F
:10614000000000000000000000000000000000004F
:10615000000000000000000000000000000000003F
:10616000000000000000000000000000000000002F
:10617000000000000000000000000000000000001F
:10618000000000000000000000000000000000000F
:1061900000000000000000000000000000000000FF
:1061A00000000000000000000000000000000000EF
:1061B00000000000000000000000000000000000DF
:1061C00000000000000000000000000000000000CF
:1061D00000000000000000000000000000000000BF
:1061E00000000000000000000000000000000000AF
:1061F000000000000000000000000000000000009F
:10620000FEE7FEE7FEE7FEE7FEE7FEE7FEE7FEE766
:10621000FEE7FEE700F002B8FFF7FCBF0F484FF0C3
:106220000701884385460E4880470E48016841F4BF
:1062300070010160BFF34F8FBFF36F8F00F01AB88A
:1062400009480A490A4A884207D0521A05D00378F9
:1062500001300B700131013AF9D170470000012083
:1062600079D1020088ED00E040380500D0790020A7
:106270001C7C0020314932480A1A02D0072291437F
:106280008D46304930480A1A06D00722914381F3DF
:106290000988022282F314882C482D492D4A00F0E7
:1062A0003CF82D482D492E4A00F037F82D482E494C
:1062B0002E4A00F032F82E482E492F4A00F02DF8D1
:1062C0002E482F492F4A00F028F82F482F49304AEE
:1062D00000F023F82F483049304A00F01EF83048CB
:1062E0003049002200F024F82F483049002200F005
:1062F0001FF82F4A90471F481F49884205D002685F
:10630000043003B4904703BCF7E700208646EC4610
:1063100000200021274A9047FEE7884207D0521A02
:1063200005D0037801300B700131013AF9D1704783
:10633000884202D002700130FAE770470000012065
:1063400000E000200000012000000120ECED05002D
:106350001C7C0020087F0020B8630200B8630200A4
:1063600062340500ECED05001C7C00201C7C002044
:106370008C3A05008C3A05008C3A05008C3A0500F1
:106380008C3A05008C3A05008C3A05008C3A0500E1
:10639000ECED0500D8F00500087F0020087F002004
:1063A000087F0020BCA50020BCA50020C0A50020BF
:0863B0004162020091B50200F8
:1063B80074DF704700BF184675DF704700BF184686
:1063C80076DF704700BF18467ADF704700BF18466F
:1063D8007CDF704700BF18468CDF704700BF184647
:1063E8008FDF704700BF18469BDF704700BF184615
:1063F8009DDF704700BF18469EDF704700BF1846F4
:10640800A1DF704700BF1846A4DF704700BF1846D9
:10641800B0DF704700BF184662DF704700BF1846FC
:1064280066DF704700BF184682B00190019B1B7859
:106438001AB2019B01331B781B021BB213431BB218
:106448009BB2184602B0704700B583B0034600916E
:10645800ADF80630009B002B03D10749AF20FFF7AA
:10646800F3FFBDF80630009A1946044818F050F9B1
:1064780000BF03B05DF804FBD03A0500EFBEADDE07
:1064880000B583B00190044ABB21019818F040F987
:1064980000BF03B05DF804FBD03A0500014B1B7840
:1064A800184670479686002000B583B00190019B7E
:1064B800002B03D10549C720FFF7C6FF01990448FF
:1064C8002CF01AFB00BF03B05DF804FBD03A0500BE
:1064D800F0850020014B1846704700BFD483002088
:1064E80008B54FF40772002102482CF07FFB00BF6B
:1064F80008BD00BFD4830020014B1B7818467047A5
:1065080068860020024B00221A7000BF704700BF47
:1065180068860020014B1B88184670476A86002051
:1065280000B585B001900B46ADF80230019B002BF9
:1065380003D10C49ED20FFF787FFBDF80230019920
:106548001846FFF74DFF0390039B0293029B002B15
:1065580004D0044AF221029818F0DAF800BF05B016
:106568005DF804FBD03A050000B585B00190019BA9
:10657800002B03D12E49F820FFF766FF0023029372
:1065880000238DF80C3000238DF80F3044E09DF87F
:106598000F20284913465B0013449B000B441B88BB
:1065A8001A4602AB244918462CF09BFC02AB019911
:1065B80018462CF06DFA0346002B28D19DF80F20C1
:1065C8001C4913465B0013449B000B4408339B781B
:1065D800C3F30013DBB2002B0ED19DF80F20154931
:1065E80013465B0013449B000B4408339B78C3F3AA
:1065F8004013DBB2002B0AD09DF80F200D4913463B
:106608005B0013449B000B4408331B880CE09DF887
:106618000F3001338DF80F30064B93F848309DF852
:106628000F209A42B3D30023184605B05DF804FB47
:10663800D03A050004860020503B050000B589B01B
:1066480003460A46ADF806301346ADF80430002379
:10665800ADF81C300023ADF81A3000238DF81F3038
:106668001FE09DF81F20524913465B0013449B000E
:106678000B441B88BDF806209A420DD19DF81F20B7
:106688004B4913465B0013449B000B4406331B889D
:106698000133ADF81C300BE09DF81F3001338DF845
:1066A8001F30434B93F848309DF81F209A42D8D3A7
:1066B8009DF81F203E4B93F84830013B9A421ADA66
:1066C8009DF81F305A1C3A4913465B0013449B003F
:1066D8000B441B88002B0ED09DF81F305A1C3449E0
:1066E80013465B0013449B000B4404331B88013B97
:1066F800ADF81A303CE000238DF819302DE0BDF8D4
:1067080004302C4A52F823209DF81930DB0013443A
:106718009B88BDF81C209A421AD9BDF80430254A36
:1067280052F823209DF81930DB001344DB88BDF8AC
:106738001C209A420CD8BDF804301E4A52F8232077
:106748009DF81930DB001344DB88ADF81A300FE0F0
:106758009DF8193001338DF81930BDF80430154A09
:1067680052F8233093F830309DF819209A42C6D356
:10677800BDF81C30ADF80C30BDF81A30ADF80E304D
:1067880003AABDF8043011461846FFF735FE0590F8
:10679800059B0493049B002B05D0074A4FF4A07176
:1067A800049817F0B5FF00BF09B05DF804FB00BFFF
:1067B8000486002050860020D03A050000B585B038
:1067C8000190019B002B04D120494FF4A370FFF7DF
:1067D8003BFE0023029300238DF80C3000238DF834
:1067E8000F3026E09DF80F20194913465B0013442B
:1067F8009B000B441B881A4602AB164918462CF01E
:1068080070FB02AB019918462CF042F90346002BA5
:106818000AD19DF80F200E4913465B0013449B00D4
:106828000B4406331B880CE09DF80F3001338DF8BC
:106838000F30074B93F848309DF80F209A42D1D378
:106848000023184605B05DF804FB00BFD03A0500E8
:1068580004860020503B050000B585B001900B462A
:10686800ADF80230019B002B04D1224940F25B10A5
:10687800FFF7EAFD0023029300238DF80C30002374
:106888008DF80F3026E0BDF802301B4A52F823304D
:106898009DF80F2033F832301A4602AB17491846D4
:1068A8002CF01FFB02AB019918462CF0F1F80346B7
:1068B800002B0AD1BDF802300F4A52F823209DF868
:1068C8000F30DB001344043310E09DF80F30013320
:1068D8008DF80F30BDF80230074A52F8233093F88C
:1068E80030309DF80F209A42CDD30023184605B0CA
:1068F8005DF804FBD03A050050860020503B0500A7
:1069080000B587B001900B46ADF80230019B002B13
:1069180004D1264940F26F10FFF796FDBDF802300A
:10692800194623480BF05DF90346ADF81630019877
:106938002BF0C2FD03468DF815309DF81520BDF8E3
:10694800163004339A4203DC9DF815301A2B13D8FD
:10695800184B5B88022B24D9174A184BD31ADB082B
:106968001B0443F00500BDF8163004331A461B23F8
:10697800134923F0C4F814E09DF81520BDF802303F
:1069880019460B480BF044F90490049B0393039BAE
:10699800002B07D0054A40F28511039817F0B8FE7E
:1069A80000E000BF07B05DF804FB00BFD03A050067
:1069B8001C7F00205C7A002014360500BC350500D9
:1069C800543B050000B589B00390039B002B04D10C
:1069D8002E4940F28B10FFF737FD03982BF06CFD22
:1069E8000346ADF81E30BDF81E30162B03D9BDF88E
:1069F8001E30F72B12D9264B5B88022B42D9254A29
:106A0800254BD31ADB081B0443F00500234AF72360
:106A180000931723224923F086F833E0BDF81E308F
:106A2800194620480BF0C1F80690069B0593059B74
:106A3800002B05D0154A40F29F11059817F068FE03
:106A4800BDF81E30194617480BF093F80690069BC0
:106A58000493049B002B05D00C4A4FF4D171049881
:106A680017F056FE0A4B5B88022B0CD9094A0A4BD1
:106A7800D31ADB081B0443F005030B49184623F01F
:106A88001FF800E000BF09B05DF804FBD03A05002C
:106A98005C7A002014360500BC350500903B0500E3
:106AA800AC3B05001C7F0020BC3B050000B583B053
:106AB8000190019B002B04D115494FF4D570FFF7C5
:106AC800C3FC019B1B78013B062B1AD801A252F884
:106AD80023F000BFF96A0200FF6A0200FF6A0200A1
:106AE800056B02000B6B02000B6B0200FF6A0200D1
:106AF800084B1B6807E0074B5B6804E0054B9B6885
:106B080001E0044BDB68184603B05DF804FB00BFE6
:106B1800D03A0500307C002000B587B003900B46C2
:106B280001928DF80B30039B002B04D12C4940F2C5
:106B3800C910FFF789FC019B002B04D128494FF4A9
:106B4800E570FFF781FC9DF80B30062B43D8002336
:106B580004930023ADF814309DF80B301A46002139
:106B680003982CF043F800238DF817302CE09DF89B
:106B78000B209DF817300133D31A1A46019B134492
:106B88001B781A4604AB174918462CF0AAF904AB2F
:106B9800194603982CF0ACF89DF817209DF80B3097
:106BA800013B9A420BDA03982BF0BEFF03461A46C4
:106BB800039B13440C491A460B461B8813809DF807
:106BC800173001338DF817309DF817209DF80B30DA
:106BD8009A42CCD300E000BF07B05DF804FB00BFC9
:106BE800D03A0500003C0500083C050030B587B0E8
:106BF80003460291ADF80E30234B5B88022B0AD96D
:106C0800224A234BD31ADB081B0443F0050321490E
:106C1800184622F055FF00238DF8173025E01A4B4F
:106C28005B88022B1CD9194A194BD31ADB081B04A1
:106C380043F00500184C9DF81730DB00029A134406
:106C48001B881D4615499DF81730DB00029A13442E
:106C58009B78019300912B462246114922F079FF37
:106C68009DF8173001338DF81730BDF80E300D4AF6
:106C780052F8233093F830309DF817209A42CED33B
:106C880000BF00BF07B030BD5C7A00201436050095
:106C9800BC3505000C3C0500243C05002C3C0500D7
:106CA800343C05005086002000B583B000238DF8E1
:106CB8000730C2E09DF8072013465B0013449B0091
:106CC80008336D4A1344023300936C4B5B88022BE4
:106CD80013D96B4A6B4BD31ADB081B0443F005002E
:106CE8009DF80720644913465B0013449B000B443E
:106CF8001B881A46644922F0F1FE604B5B88022B20
:106D08000AD95F4A5F4BD31ADB081B0443F005031B
:106D18005E49184622F0D4FE584B5B88022B0FD9E7
:106D2800574A584BD31ADB081B0443F00500009B55
:106D38001B78C3F30003DBB21A46554922F0CEFE96
:106D48004E4B5B88022B0FD94D4A4E4BD31ADB08AA
:106D58001B0443F00500009B1B78C3F34003DBB220
:106D68001A464C4922F0BAFE444B5B88022B0FD9D5
:106D7800434A444BD31ADB081B0443F00500009B2D
:106D88001B78C3F38003DBB21A46434922F0A6FE00
:106D98003A4B5B88022B0FD9394A3A4BD31ADB0896
:106DA8001B0443F00500009B1B78C3F3C003DBB250
:106DB8001A463A4922F092FE304B5B88022B0FD9D3
:106DC8002F4A304BD31ADB081B0443F00500009B05
:106DD8001B78C3F30013DBB21A46314922F07EFE5A
:106DE800264B5B88022B0FD9254A264BD31ADB0882
:106DF8001B0443F00500009B1B78C3F34013DBB270
:106E08001A46284922F06AFE1C4B5B88022B0FD9D0
:106E18001B4A1C4BD31ADB081B0443F00500009BDC
:106E28001B78C3F38013DBB21A461F4922F056FEC3
:106E38009DF8073001338DF807300F4B93F8483031
:106E48009DF807209A42FFF435AF0C4B5B88022B64
:106E58000DD90B4A0B4BD31ADB081B0443F005036F
:106E6800054A92F848201149184622F037FE00BF1B
:106E780003B05DF804FB00BF048600205C7A0020A4
:106E880014360500BC350500483C0500643C050087
:106E9800743C0500843C0500903C0500A43C0500BA
:106EA800B03C0500C03C0500D03C0500E83C0500AE
:106EB80000B589B001900091019B002B04D11649BF
:106EC80040F20E20FFF7C0FA009B002B04D11249B4
:106ED80040F20F20FFF7B8FA0023039304AB002217
:106EE8001A605A609A609A81019B5A1C03AB06216A
:106EF8001846FFF711FE03AB1222009918462BF033
:106F0800D4FE0346002B0CBF01230023DBB2184636
:106F180009B05DF804FB00BFD03A050000B585B0A4
:106F28000190019B002B04D1174940F21D20FFF767
:106F38008BFA0023ADF80C3000238DF80F3019E0E0
:106F48009DF80F201346DB009B1A104A1344019941
:106F58001846FFF7ADFF0346002B06D09DF80F300B
:106F6800ADF80C30BDF80C300AE09DF80F30013355
:106F78008DF80F309DF80F30052BE1D94FF6FF73D0
:106F8800184605B05DF804FBD03A05006C86002071
:106F980000B587B0019000238DF817300023ADF8B5
:106FA8001230019B9B690293019B9B8BADF80C30BF
:106FB80000238DF8173018E0019BD81C9DF8172086
:106FC80013465B001344DA001344494A134401335F
:106FD800062219462BF069FE0346002B00F082803A
:106FE8009DF8173001338DF817309DF81730132BA3
:106FF800E2D900238DF817306FE09DF817203C493F
:1070080013465B001344DA0013440B441B7883F0E7
:107018000103DBB2002B5BD09DF8172013465B0001
:107028001344DA001344324A1344581C019B0333B7
:10703800062219462BF0A8FD9DF817202C49134667
:107048005B001344DA0013440B4401221A700298BF
:10705800BDF80C100DF11202092306F055FF034686
:10706800ADF81430BDF81430002B0ED10298BDF8DD
:107078000C100DF11202082306F046FF0346ADF886
:107088001430BDF81430002B2ED09DF8172013466D
:107098005B001344DA001344154A1344D81D029BBD
:1070A800BDF812201344BDF8142019462BF06CFDCE
:1070B8009DF81720BDF814100D4813465B001344C3
:1070C800DA00134403440B44073300221A700CE01F
:1070D8009DF8173001338DF817309DF81730132BB2
:1070E8008BD902E000BF00E000BF07B05DF804FBE9
:1070F800D483002000B585B001900091234B5B88B4
:10710800022B0AD9224A234BD31ADB081B0443F06B
:1071180005032149184622F0D3FC00238DF80F30CF
:107128001BE01A4B5B88022B12D9194A194BD31A48
:10713800DB081B0443F005009DF80F30009AD31AB2
:10714800013B019A13441B781A46144922F0C6FCE5
:107158009DF80F3001338DF80F309DF80F30009AED
:107168009A42DED8094B5B88022B0AD9084A094B98
:10717800D31ADB081B0443F005030949184622F01B
:107188009FFC00BF05B05DF804FB00BF5C7A0020DF
:1071980014360500BC350500083D0500203D0500F6
:1071A800283D050000B591B0019000910023ADF88D
:1071B8002E30019BDB690E93019B1B8CADF83E3092
:1071C8000DF12E02BDF83E1009230E9806F09CFE24
:1071D8000346ADF83C30BDF83C30002B0ED10DF124
:1071E8002E02BDF83E1008230E9806F08DFE0346C9
:1071F800ADF83C30BDF83C30002B2AD0BDF82E301D
:107208001A460E9B9918BDF83C2003AB18462BF084
:10721800BBFCBDF83C3040336B44002203F8342CEF
:10722800009804F009FA0346002B13D001230B4AF7
:107238000B490098FFF7D0F80D900D9B0C930C9B11
:10724800002B07D0074A40F2B6210C9817F060FAD5
:1072580000E000BF11B05DF804FB00BF4C41050021
:1072680098830020D03A050000B59DB00190019B9D
:10727800002B04D12F4940F2BD20FFF7E5F817ABEA
:107288000722002118462BF0B1FC03AB5022002145
:1072980018462BF0ABFC019B1B8803AA1146184625
:1072A8000DF0C8FA1B901B9B002B0FD0224B5B885C
:1072B800022B3BD9214A224BD31ADB081B0443F08B
:1072C80003032049184622F0FBFB30E017AB0DF111
:1072D8001D02106818609188927999809A7101F05E
:1072E80027FC012101980DF0FFF91B901B9B1A93B5
:1072F8001A9B002B05D00F4A4FF436711A9817F0D5
:1073080007FA01F0D3FB17A801230F4A0F49FFF72B
:1073180063F81B901B9B1993199B002B07D0054AF8
:107328004FF43871199817F0F3F900E000BF1DB059
:107338005DF804FBD03A05005C7A0020143605009D
:10734800BC3505002C3D05004C4105009883002004
:1073580000B58BB00190019B06330893019B1B88F5
:10736800ADF81E30BDF81E30594A52F82330069346
:10737800089B1B88ADF81630BDF81630002B46D098
:10738800019B5B88002B42D1BDF81630514A128808
:107398001344062B06DD4F4B1B88C3F10603ADF8DB
:1073A800263003E0BDF81630ADF82630494B1B886F
:1073B800DB00069AD018089B991CBDF82630DB0024
:1073C8001A462BF0E1FB434B1A88BDF816301344DC
:1073D8009AB2404B1A80BDF81630013B089ADB0080
:1073E80013441B89013399B2BDF81E300022184698
:1073F800FEF7FAFF0490049B0393039B002B62D0D3
:10740800354A40F21531039817F082F95BE0314BA9
:107418001988BDF81E302E4A52F82330CAB283F8B4
:10742800302000238DF825302BE09DF82530DB0037
:10743800069A13449B78002B1ED1284B01221A7000
:107448009DF82530DB00069A13449988BDF81E3054
:1074580000221846FEF7D4FF0490049B0293029B77
:10746800002B05D01C4A4FF44971029817F050F9C7
:10747800184B00221A8027E09DF8253001338DF83B
:1074880025309DF825309AB2124B1B889A42CCD3EE
:10749800134B5B88022B0CD9124A134BD31ADB0807
:1074A8001B0443F003030B4A12881049184622F0C4
:1074B80015FB019B1B8806991846FFF797FB054BA0
:1074C80000221A8000E000BF0BB05DF804FB00BF8B
:1074D80050860020E4870020D03A050097860020D7
:1074E8005C7A002014360500BC3505004C3D0500CB
:1074F80000B585B0019000238DF80F303EE09DF86F
:107508000F20244913465B0013449B000B440833A7
:107518009B78C3F30013DBB2002B0ED19DF80F202C
:107528001C4913465B0013449B000B4408339B78AB
:10753800C3F34013DBB2002B1BD09DF80F20154975
:1075480013465B0013449B000B4408331B88002B35
:107558000FD19DF80F200F4913465B0013449B0081
:107568000B441A88019B1B8819461046FFF766F8DA
:107578000CE09DF80F3001338DF80F30054B93F870
:1075880048309DF80F209A42B9D300BF00BF05B01C
:107598005DF804FB0486002000B58BB00190019BC8
:1075A8001B88ADF82030019BDB88ADF81E30019BAD
:1075B80006330693019B5B88002B40F0A680BDF83C
:1075C8001E30B54A12881344062B15DDB24B1B88B2
:1075D800C3F10603ADF82630B04B5B88022B0FD9F8
:1075E800AF4AB04BD31ADB081B0443F00503AE497E
:1075F800184622F065FA03E0BDF81E30ADF82630D3
:1076080000238DF8253071E09DF825109DF8253070
:10761800A14A12881A4406980B469B000B445B004B
:10762800034408331888A14913465B0013449B00A0
:107638000B44043302461A809DF825109DF8253026
:10764800954A12881A4406980B469B000B445B0027
:1076580003440A331888954913465B0013449B007A
:107668000B44063302461A809DF825209DF82530E4
:107678008949098819448D480B465B000B449B00D7
:107688001844069913469B0013445B000B440246BA
:107698000233186810609DF825209DF825307E4932
:1076A8000988194481480B465B000B449B0003443E
:1076B80003F10A01069813469B0013445B00034438
:1076C80006331B780B709DF82530734A12881A44CC
:1076D800764913465B0013449B000B440833002291
:1076E8001A809DF8253001338DF825309DF8253016
:1076F8009BB2BDF826209A4286D8674B1A88BDF8F7
:10770800263013449AB2644B1A80634B1B885A1E66
:10771800664913465B0013449B000B4406331B88E1
:1077280001339BB2ADF8083000238DF824302DE0EA
:10773800BDF80820BDF820305D4951F823109DF8A8
:107748002430DB000B449B889A421AD9BDF80820E4
:10775800BDF82030564951F823109DF82430DB003D
:107768000B44DB889A420CD2BDF82030504A52F8BC
:1077780023209DF82430DB001344DB88ADF80A3061
:107788000FE09DF8243001338DF82430BDF8203007
:10779800474A52F8233093F830309DF824209A4213
:1077A800C6D33D4B1B885A1E404913465B00134401
:1077B8009B000B4406331A88BDF80A309A4207D258
:1077C800354B1B88062B03D0019B5B88002B4AD0C6
:1077D800314B1B88DAB2354B83F848202E4B0022F8
:1077E8001A8000238DF8233030E09DF823202F499C
:1077F80013465B0013449B000B4402331B78002B99
:107808001FD12C4B01221A709DF8232027491346BB
:107818005B0013449B000B4404331988BDF82030E7
:1078280000221846FEF7ECFD0590059B0393039B89
:10783800002B2CD0204A40F29931039816F068FFAB
:1078480025E09DF8233001338DF82330174B93F84A
:1078580048309DF823209A42C7D3FFF725FA0198AC
:10786800FFF746FE14E0019B1B8802AA1146184642
:10787800FEF7BEFD0590059B0493049B002B07D0E3
:107888000D4A40F2A931049816F042FF00E000BF0B
:107898000BB05DF804FB00BFE68700205C7A00208F
:1078A80014360500BC350500603D0500048600203F
:1078B8005086002098860020D03A050000B589B08F
:1078C8000190019B1B88ADF81A30019BDB88ADF84D
:1078D8001830BDF81830002B11D1994B5B88022B5A
:1078E80040F22881974A984BD31ADB081B0443F0CF
:1078F8000503964A9649184622F0F0F81AE1019BCA
:107908005B88002B40F0188100238DF81F3066E05B
:107918009DF81F20019913465B0013445B000B443C
:107928000A331B8842F60212934253D100238DF882
:107938001E3044E09DF81E20864913465B00134420
:107948009B000B4408331B88002B33D19DF81E2065
:10795800804913465B0013449B000B4408339B7813
:10796800C3F30013DBB2002B0ED19DF81E2079491A
:1079780013465B0013449B000B4408339B78C3F306
:107988004013DBB2002B15D09DF81F109DF81E2068
:1079980001980B465B000B445B00034408331888CE
:1079A8006C4913465B0013449B000B4408330246A2
:1079B8001A800BE09DF81E3001338DF81E30654BA0
:1079C80093F848309DF81E209A42B3D30198FFF7E8
:1079D8008FFDB2E09DF81F3001338DF81F309DF800
:1079E8001F309BB2BDF818209A4291D803AB0422ED
:1079F800002118462BF0FAF8BDF818305A1E0199E4
:107A080013465B0013445B000B4408331B880133A7
:107A18009BB2ADF80C3000238DF81D306FE0BDF837
:107A28000C109DF81D204B4813465B0013449B0027
:107A3800034406331B88994217D39DF81D20454BF4
:107A480093F84830013B9A420FDA9DF81D305A1CD2
:107A5800404913465B0013449B000B4404331B88C6
:107A6800013B9BB2ADF80E3050E09DF81D20394B1C
:107A780093F84830013B9A423CD100238DF81C30E2
:107A88002DE0BDF80C20BDF81A30334951F8231009
:107A98009DF81C30DB000B449B889A421AD9BDF82C
:107AA8000C20BDF81A302C4951F823109DF81C30D1
:107AB800DB000B44DB889A420CD2BDF81A30264A08
:107AC80052F823209DF81C30DB001344DB88ADF806
:107AD8000E300FE09DF81C3001338DF81C30BDF8D6
:107AE8001A301D4A52F8233093F830309DF81C2084
:107AF8009A42C6D39DF81D3001338DF81D30154BC1
:107B080093F848309DF81D209A4288D303AABDF8FF
:107B18001A3011461846FEF76FFC0590059B049332
:107B2800049B002B09D00D4A40F20241049816F03C
:107B3800EFFD02E000BF00E000BF09B05DF804FB04
:107B48005C7A002014360500BC350500883D050028
:107B5800B83D05000486002050860020D03A050074
:107B680030B58FB00190019B1B88ADF83030019B78
:107B780006330B93B84B1B78002B00F0C78000230B
:107B88008DF8373045E00B9B1A88BDF83030B34983
:107B980051F823109DF83730DB000B449B889A423C
:107BA80032D10B9B063302AC186859689A68DB68B7
:107BB8000FC4BDF83030A94A52F823209DF8373059
:107BC800DB0013449A1C02AB11461846FEF724FC4E
:107BD8000A900A9B0793079B002B05D0A04A40F206
:107BE8001C41079816F094FDBDF830309B4A52F8B6
:107BF80023409DF8375002AB0C331846FEF714FCAF
:107C0800034624F835300FE09DF8373001338DF8FE
:107C18003730BDF83030914A52F8233093F830307D
:107C28009DF837209A42AED300238DF8363061E0B4
:107C3800BDF83030894A52F823209DF83630DB00F1
:107C480013449B78002B20D1834B01221A70BDF876
:107C58003030824A52F823209DF83630DB00134436
:107C68009988BDF8303000221846FEF7C9FB0A9003
:107C78000A9B0693069B002B00F04381784A40F24A
:107C88002C41069816F044FD3BE19DF83620BDF8DE
:107C98003030724951F8233093F83030013B9A4222
:107CA80023D1704B5B88022B11D96F4A6F4BD31AC3
:107CB800DB081B0443F00300BDF83030674A52F874
:107CC800233093F830301A46694921F007FF624B98
:107CD80000221A70019B1A88BDF830305F4951F8AC
:107CE800233019461046FEF781FF9DF836300133E0
:107CF8008DF83630BDF83030584A52F8233093F8B2
:107D080030309DF836209A4292D3FDE0594B1B78CB
:107D1800002B00F0B38000238DF8353047E00B9B33
:107D280019889DF83520544813465B0013449B007E
:107D3800034404331B88994234D10B9B0633033325
:107D480002AC186859689A68DB680FC49DF835203A
:107D580013465B0013449B00474A13449A1C02AB2A
:107D680011461846FEF758FB0A900A9B0993099B8F
:107D7800002B05D03A4A40F24741099816F0C8FC52
:107D88009DF8354002AB0C331846FEF74DFB034611
:107D98001946394A23465B0023449B0013440A468C
:107DA8001A800BE09DF8353001338DF83530324BB1
:107DB80093F848309DF835209A42B0D300238DF8C7
:107DC800343040E09DF834202B4913465B001344BF
:107DD8009B000B4402331B78002B1FD1254B01223B
:107DE8001A709DF83420244913465B0013449B0005
:107DF8000B4404331988BDF8303000221846FEF7CA
:107E0800FFFA0A900A9B0893089B002B7BD0144A20
:107E180040F25741089816F07BFC74E09DF8342036
:107E2800154B93F84830013B9A4207D1114B002279
:107E38001A70FEF739FF0198FFF75AFB9DF83430A6
:107E480001338DF834300C4B93F848309DF83420CA
:107E58009A42B7D358E000BF97860020508600208A
:107E6800D03A05005C7A002014360500BC350500C0
:107E78004C3D05009886002004860020234B5B8833
:107E8800022B0AD9224A234BD31ADB081B0443F0DE
:107E980005032149184621F013FE00238DF83330DD
:107EA80018E01A4B5B88022B0FD9194A194BD31AC1
:107EB800DB081B0443F005009DF833300B9A13448C
:107EC8009B791A46154921F009FE9DF83330013394
:107ED8008DF833309DF833309AB20B9B9B889A42C9
:107EE800DFD30A4B5B88022B0ED9094A094BD31AF8
:107EF800DB081B0443F005030949184621F0E0FD9F
:107F080002E000BF00E000BF0FB030BD5C7A002087
:107F180014360500BC350500DC3D0500EC3D0500C8
:107F2800283D050000B585B00190019B06330293FA
:107F38002D4B5B88022B0CD92C4A2D4BD31ADB080E
:107F48001B0443F00500029B9B781A46294921F03F
:107F5800C5FD254B5B88022B0AD9244A244BD31A2A
:107F6800DB081B0443F005032349184621F0A8FD4C
:107F780000238DF80F3018E01B4B5B88022B0FD9BC
:107F88001A4A1B4BD31ADB081B0443F005009DF863
:107F98000F30029A13441B7A1A46184921F09EFDA5
:107FA8009DF80F3001338DF80F309DF80F309AB2DD
:107FB800029BDB889A42DFD3029BDB88002B0ED022
:107FC800094B5B88022B0AD9084A094BD31ADB08EC
:107FD8001B0443F005030A49184621F071FD00BF50
:107FE80005B05DF804FB00BF5C7A0020143605007C
:107FF800BC350500F43D0500143E0500383E05007B
:10800800283D050030B58DB003460291ADF80E301D
:10801800BDF80E30184607F0F5F80346ADF82C30D9
:10802800029B1B88103B292B00F2ED8101A252F81C
:1080380023F000BFE58002002F8102000F840200B8
:108048000F8402000F840200678102000F8402007F
:10805800098202000F8402000F8202000F840200CE
:108068000F8402000F8402000F8402000F840200B4
:108078000F8402000F840200698202000F8402004C
:108088000F8402000F8402000F8402000F84020094
:108098000F8402000F8402000F8402000F84020084
:1080A8000F8402000F8402000F8402000F84020074
:1080B8000F840200C38202000F840200CF820200F4
:1080C800DB8202000F8402000F840200E7820200B4
:1080D8000F840200F3820200FF820200BDF80E2026
:1080E800A0491346DB009B1ACA18029B083318687C
:1080F800106099889B7991809371BDF80E3019466C
:10810800984801F083F9029B093306211846FEF7C7
:10811800F1FFBDF80E4094481AF0A6F90346934AB9
:1081280042F8243078E1BDF80E3019468D4801F048
:1081380091F9BDF80E201346DB009B1A894A1344B7
:108148000722002118462AF051FDBDF80E30874A53
:1081580052F82330194684481AF0CEF95CE1029BA4
:1081680003F1080105AB062218462AF00DFD00238D
:108178008DF81A307E4B5B88022B22D97D4A7E4BC4
:10818800D31ADB081B0443F00304BDF82C307B4AE8
:1081980052F82330184621F0F9FB03461D4605AB7B
:1081A800184621F0F3FB03461A46029B9B7BC3F358
:1081B8000003DBB2009313462A467149204621F09A
:1081C800B2FC029B9B7B03F00103DBB2002B00F0A7
:1081D8001C81674B5B88022B0AD9664A664BD31A07
:1081E800DB081B0443F003036649184621F068FCCA
:1081F800654ABDF80E301380644B01221A7004E101
:1082080001F0CEF908E15A4B5B88022B40F2FF805F
:10821800584A594BD31ADB081B0443F00304BDF832
:108228002C30564A52F82330184621F0AFFB03464B
:108238001946029B1B7A1846029B5B7AC3F380039C
:10824800DBB21A46029B9B7AC3F3C003DBB20193ED
:10825800009203460A464E49204621F07AFCD6E0B1
:10826800029B04330893424B5B88022B0AD9414A8C
:10827800414BD31ADB081B0443F005034549184654
:1082880021F01EFC00238DF8103000238DF81130EA
:10829800089B1B8804AA11461846FEF7A1F80A9005
:1082A8000A9B0793079B002B00F0B3803A4A4FF4D0
:1082B8009C61079816F02CFAABE0029B0433184631
:1082C800FFF746F8A8E0029B04331846FFF764F965
:1082D800A2E0029B04331846FFF7F0FA9CE0029BE9
:1082E80004331846FFF73CFC96E0029B043318461B
:1082F800FFF718FE90E0029B1B7B022B13D1029B19
:108308009A88029B5B8919461046FEF77DF80A9009
:108318000A9B0993099B002B05D01F4A40F209517B
:10832800099816F0F5F9029BDB898DF82E30104B71
:108338005B88022B11D90F4A0F4BD31ADB081B0499
:1083480043F00500029B1B7B012B01D0134B00E07F
:10835800134B1A46134921F0C1FB00238DF82F3027
:108368003BE000BF6C860020943705005086002053
:108378005C7A002014360500BC350500247C0020FA
:108388003C3E0500783E05006A860020688600208D
:10839800B83E0500F43E0500D03A05000C3F050044
:1083A800183F0500283F05001D4B5B88022B0FD99D
:1083B8001C4A1D4BD31ADB081B0443F005009DF82B
:1083C8002F30029A13441B7C1A46184921F086FB69
:1083D8009DF82F3001338DF82F309DF82F209DF810
:1083E8002E309A42E0D30E4B5B88022B13D90D4AEC
:1083F8000D4BD31ADB081B0443F005030C49184640
:1084080021F05EFB07E000BF06E000BF04E000BF0C
:1084180002E000BF00E000BF00BF0DB030BD00BFEC
:108428005C7A002014360500BC350500383E05008E
:10843800283D050030B58BB00190019B04330493AF
:10844800049B06330693019B1B88103B462B00F2C6
:108458008B8101A252F823F07D850200B7850200C6
:108468005586020071870200718702007187020039
:10847800718702007187020071870200718702000C
:10848800718702007187020071870200E58502008A
:1084980071870200778602007187020071870200E7
:1084A800118702007187020071870200718702003C
:1084B80071870200718702007187020071870200CC
:1084C80071870200718702007187020071870200BC
:1084D80071870200718702007187020071870200AC
:1084E800718702007187020071870200718702009C
:1084F800718702007187020071870200718702008C
:10850800ED860200A18602007187020071870200D1
:10851800718702007187020071870200718702006B
:10852800718702007187020071870200718702005B
:10853800718702007187020071870200718702004B
:10854800718702007187020071870200718702003B
:10855800718702007187020071870200718702002B
:10856800718702007187020071870200718702001B
:10857800C7860200864B5B88022B0CD9854A864B3E
:10858800D31ADB081B0443F00300049B1B881A461C
:10859800824921F0A3FA1222002181482AF026FB01
:1085A800002003F05FFD012003F042FDEDE0784B71
:1085B8005B88022B0ED9774A774BD31ADB081B044A
:1085C80043F00300049B1B881A46049B1B797549DA
:1085D80021F095FA012003F045FDD6E0049B06330F
:1085E8006F491846FEF764FC0346002B1FD0122281
:1085F80000216B482AF0FAFA654B5B88022B0AD9EE
:10860800644A654BD31ADB081B0443F0030366492D
:10861800184621F055FA049B981D0123634A6449C2
:10862800FDF7DAFE0990099B002B40F09F80069920
:108638000498FEF7B7FD049B04331846FEF7A8FC20
:10864800049B0633184600F02FFF9EE0504B5B88D2
:10865800022B40F28D804F4A4F4BD31ADB081B0484
:1086680043F005035349184621F02AFA80E0049B99
:108678001A88049B043319461046FDF79DFE09909D
:10868800099B0393039B002B74D04B4A40F28651FD
:10869800039816F03DF86DE0019B9B88132118465E
:1086A800FDF78EFE0990099B0893089B002B63D069
:1086B800414A40F28F51089816F02AF85CE0019B75
:1086C8009B8813211846FDF77BFE0990099B0593AB
:1086D800059B002B52D0384A40F29751059816F066
:1086E80017F84BE02A4B5B88022B49D9294A2A4BB9
:1086F800D31ADB081B0443F00500019B5B891A466B
:108708002E4921F0EBF93BE0019B08330793079BC7
:108718001B78232B36D00023ADF80830079B5B78F5
:108728008DF80830079B9B788DF80930184B5B88CB
:10873800022B29D9174A184BD31ADB081B0443F01C
:108748000304079B1B78002B01D11D4B00E01D4B38
:108758001D4602AB1846FEF7A9F903462A461A49F0
:10876800204621F0CCF90FE000BF0EE000BF0CE07E
:1087780000BF0AE000BF08E000BF06E000BF04E059
:1087880000BF02E000BF00E000BF0BB030BD00BF7B
:108798005C7A002014360500BC350500343F05001E
:1087A800F0850020543F0500843F05004C4105003A
:1087B800988300209C3F0500D03A0500C43F05007F
:1087C800D83F0500E43F0500F03F050030B593B001
:1087D8000190019B1B88562B60D0562B00F301811A
:1087E800512B00F08380512B00F3FB803B2B41D0B1
:1087F8003B2B00F3F680222B00F0B380222B00F3F2
:10880800F080112B1FD0112B00F3EB80012B59D0D6
:10881800102B40F0E6807B4B5B88022B0CD97A4A00
:108828007A4BD31ADB081B0443F00300019B9B8897
:108838001A46774921F052F9022003F013FC03206D
:1088480003F0F6FBDAE06F4B5B88022B0ED96E4A19
:108858006E4BD31ADB081B0443F00300019B9B8873
:108868001A46019B1B7A6B4921F049F9032003F052
:10887800F9FBC3E0019B9B8813211846FDF7A0FD77
:108888001190119B0E930E9B002B00F0AC80624A56
:1088980040F2DA510E9815F03BFFA4E0019B9B884B
:1088A80013211846FDF78CFD1190119B1093109B16
:1088B800002B00F09A80584A40F2E251109815F0C7
:1088C80027FF92E0019B9B8800211846FDF7A8FD31
:1088D8001190119B0C930C9B002B00F088804E4A42
:1088E80040F2E7510C9815F013FF80E0019B08ACAB
:1088F8000633186859689A68DB680FC49DF82030F9
:10890800002B76D09DF82830042B07D09DF828300E
:10891800062B03D09DF82830052B6AD19DF820300E
:10892800022B03D102238DF8103002E001238DF8C9
:1089380010304FF4C173ADF81430019B9B8804AA22
:1089480011461846FDF764FD1190119B0F930F9B7C
:10895800002B4ED0304A40F204610F9815F0D8FE33
:1089680047E0019B08330D930D9B1B78232B0FD1F8
:10897800244B5B88022B3ED9234A244BD31ADB08AD
:108988001B0443F003032549184621F099F835E004
:108998000023ADF80C300D9B5B788DF80C300D9BE7
:1089A8009B788DF80D30174B5B88022B25D9164A1A
:1089B800164BD31ADB081B0443F003040D9B1B78EA
:1089C800002B01D1164B00E0164B1D4603AB184691
:1089D800FEF76CF803462A461349204621F08FF823
:1089E8000BE000BF0AE000BF08E000BF06E000BFE0
:1089F80004E000BF02E000BF00E000BF00BF13B00A
:108A080030BD00BF5C7A002014360500BC35050077
:108A18001040050034400500D03A050068400500C4
:108A2800D83F0500E43F0500F03F050000B583B0DE
:108A380003468DF807309DF80730032B03D1022039
:108A480003F0F6FA00E000BF00BF03B05DF804FBD6
:108A580000B585B001900091019B9B88ADF80E3060
:108A6800BDF80E30184606F0CDFB0346ADF80C30C5
:108A7800BDF80E3001991846FFF7C4FABDF80C305E
:108A8800012B03D10198FFF7A1FE0AE0BDF80C30D5
:108A9800022B03D0019B1B881D2B02D10198FFF7E5
:108AA800C9FC00BF05B05DF804FB000000B583B049
:108AB8001222002116482AF099F800F00FFD1548F7
:108AC80009F0F2FE0190019B0093009B002B05D05A
:108AD800114A40F26261009815F01AFE002003F076
:108AE800A7FA0E4B5B88022B0AD90D4A0D4BD31AF5
:108AF800DB081B0443F003030B49184620F0E0FF92
:108B08000A4B01221A7000BF03B05DF804FB00BFD6
:108B1800F08500208C830020D03A05005C7A002084
:108B280014360500BC3505009440050096860020E3
:108B380008B509F062FE002003F094FA024B002207
:108B48001A7000BF08BD00BF9686002000B583B02C
:108B5800022003F06DFA03211A4805F085FD019003
:108B6800019B122B0FD1184B5B88022B26D9174A71
:108B7800174BD31ADB081B0443F0030315491846A7
:108B880020F09EFF1AE0019B0093009B002B05D06C
:108B9800114A40F28761009815F0BAFD0A4B5B88CC
:108BA800022B0CD9094A0A4BD31ADB081B0443F0E1
:108BB80003030A49184620F083FF00E000BF03B012
:108BC8005DF804FB587F00205C7A0020143605000D
:108BD800BC350500A0400500D03A0500C840050096
:108BE80000B583B0022003F03DFA104B93F85430DF
:108BF8001846FDF7DDFB0190019B002B12D0019B6D
:108C0800082B0FD0019B43F2040293420AD0019B28
:108C18000093009B002B05D0054A40F2996100980B
:108C280015F076FD00BF03B05DF804FB587F002007
:108C3800D03A050000B587B027F068FD0590059B80
:108C48000493049B002B05D0164A40F2A7610498B0
:108C580015F05EFD0023019301AB1946012027F0B2
:108C68006BFE0590059B0393039B002B05D00D4AD3
:108C780040F2AD61039815F04BFD01AB184627F0A3
:108C880093FF0590059B0293029B002B05D0054A94
:108C980040F2B161029815F03BFD00BF07B05DF8E6
:108CA80004FB00BFD03A050000B585B003468DF837
:108CB80007309DF807300E2B1BD14FF6FE72572157
:108CC8000F480EF067FD0390039B002B13D0039B06
:108CD800082B10D0039B132B0DD0039B43F20142AA
:108CE800934208D0074A40F2CB61039815F010FD73
:108CF80001E000BF00E000BF00BF05B05DF804FB65
:108D0800087F0020D03A050000B583B00949032048
:108D180003F0B6FD0190019B0093009B002B05D04A
:108D2800054A40F2DD61009815F0F2FC00BF03B07F
:108D38005DF804FBB18C0200D03A050000B587B09D
:108D48009DF80030012262F303038DF800309DF88E
:108D58000030012262F307138DF800306B461622AB
:108D68001B491846FDF734FB0590059B0493049BAB
:108D7800002B05D0174A40F2F161049815F0C8FCA1
:108D880001AB08220021184629F030FF5023ADF826
:108D980004304FF4C873ADF806300523ADF8083039
:108DA8004FF41B73ADF80A3001AB1846FDF70CFB06
:108DB8000590059B0393039B002B05D0054A40F2C1
:108DC800FB61039815F0A4FC00BF07B05DF804FB35
:108DD800D4400500D03A050000B583B00190009159
:108DE800009B1B8840F67722934204D04DF67A22E6
:108DF800934210D024E0144B5B88022B1DD9134AF0
:108E0800134BD31ADB081B0443F00503114918461A
:108E180020F056FE11E00C4B5B88022B0FD90B4A51
:108E28000B4BD31ADB081B0443F00300009B1B7990
:108E38001A46094920F052FE01E000BF00E000BFD9
:108E480000BF03B05DF804FB5C7A0020143605000F
:108E5800BC350500EC4005000841050000B583B0AD
:108E680009490A4808F05AFE0190019B0093009BAB
:108E7800002B05D0064A40F21B71009815F048FCFB
:108E880000BF03B05DF804FBE18D02001C7F0020E9
:108E9800D03A050000B587B00190019B5B88ADF81A
:108EA8001630019B1B78002B11D1BDF816303B21E1
:108EB8001846FDF785FA0490049B0393039B002B47
:108EC80005D0054A40F23171039815F021FC00BF26
:108ED80007B05DF804FB00BFD03A050000B58BB0C1
:108EE80001AB1C220021184629F080FE00230193C3
:108EF8004FF4A03302934FF4F023039303238DF828
:108F080010304FF6FF73ADF8123001238DF814308E
:108F18000B4B06930B4B079301AB184605F02EFE3F
:108F28000990099B0893089B002B05D0064A40F23C
:108F38004971089815F0ECFB00BF0BB05DF804FB15
:108F48009D8E020089640200D03A050000B5AFB0DA
:108F580001ABAC220021184629F048FE02238DF807
:108F6800043001238DF8063006238DF807300223DC
:108F7800ADF81430124B069301238DF880304FF46E
:108F88009673239344F2506324930E4B2A9301ABB8
:108F980019460D4805F090FA2D902D9B2C932C9B8B
:108FA800002B05D0094A40F261712C9815F0B0FBEE
:108FB8000121054805F073FA00BF2FB05DF804FBE6
:108FC8001C7C0020358A0200587F0020D03A05001A
:108FD80000B583B000220021094809F013FC019074
:108FE800019B0093009B002B05D0064A40F26E714E
:108FF800009815F08DFB00BF03B05DF804FB00BFBF
:109008008C830020D03A050000B583B0094819F0D8
:10901800CFF90190019B0093009B002B05D0064AD5
:1090280040F27A71009815F073FB00BF03B05DF849
:1090380004FB00BF94370500D03A050000B589B09D
:1090480064238DF81F3001AB10220021184629F047
:10905800CDFD0023019301238DF8083000230393ED
:109068009DF81F308DF8103003238DF8123003233C
:109078008DF8133001AB194609480EF042FB0690F3
:10908800069B0593059B002B05D0064A40F2947178
:10909800059815F03DFB00BF09B05DF804FB00BF63
:1090A800087F0020D03A050008B5FFF7ADFFFFF7AD
:1090B8002BFEFFF7BFFDFFF78BFFFFF73FFEFFF724
:1090C800CDFEFFF7BBFFFFF709FFFFF73FFF00BF2C
:1090D80008BD82B00190019B9B68D3F84831C3F367
:1090E8004003DBB2002B14BF01230023DBB2184678
:1090F80002B070476FDF704700BF184670DF7047D7
:1091080000BF184675DF704700BF184676DF704706
:1091180000BF18467CDF704700BF184680DF7047E5
:1091280000BF184687DF704700BF18468DDF7047BD
:1091380000BF18469BDF704700BF18469DDF704789
:1091480000BF1846A1DF704700BF1846A3DF70476D
:1091580000BF184600B583B003460091ADF806304D
:10916800BDF806304FF6FF72934206D1054A022138
:1091780000981CF063F8002300E00123184603B0B0
:109188005DF804FB5441050000B585B00190019BD2
:10919800002B0CD0019B082B09D0019B0393039B48
:1091A800002B04D0044A8421039815F0B1FA00BFBB
:1091B80005B05DF804FB00BF6C41050000B583B045
:1091C80001900091019B002B03D10A498C20FDF7E7
:1091D8003BF9009B002B03D106498D20FDF734F99C
:1091E8000099019829F054FC0346184603B05DF82D
:1091F80004FB00BF6C41050000B58DB003900291DF
:1092080013468DF80730029B03F5D27309939DF836
:109218000730022B12D0022B64DC002B02D0012B6A
:1092280006D05FE014238DF82E30029B0A930BE0E2
:1092380006238DF82E30029B0A9305E00A238DF849
:109248002E30029B0A9300BF04AB1222002118465D
:1092580029F0CCFC04AB039A06211846FDF75CFC08
:10926800099B1B789DF82E209A423DD900238DF842
:109278002F3015E09DF82F2013465B001344DA00C9
:10928800D31A0A9A134404AA1146184629F000FC76
:109298000346002B2AD09DF82F3001338DF82F304C
:1092A8009DF82F209DF82E309A42E3D3099B1B7816
:1092B8005A1CD1B2099A11701A4613465B0013441E
:1092C800DA00D31A0A9A134404AA0A49184629F05C
:1092D80008FE099B1B781946074B15220A9829F0A6
:1092E800C2FA04E000BF02E000BF00E000BF0DB01A
:1092F8005DF804FBF4410500C591020000B589B092
:109308000390029113468DF80730029B03F5D27340
:1093180004939DF80730022B12D0022B72DC002B2D
:1093280002D0012B06D06DE014238DF81F30029B6C
:1093380006930BE006238DF81F30029B069305E089
:109348000A238DF81F30029B069300BF00238DF877
:10935800173050E09DF8172013465B001344DA00DD
:10936800D31A069A13440399184629F091FB034629
:10937800002B3BD19DF817209DF81F30013B9A42E6
:109388000BD19DF8172013465B001344DA00D31A5B
:10939800069A134400221A7021E09DF817201346FC
:1093A8005B001344DA00D31A069AD0189DF81730D8
:1093B8005A1C13465B001344DA00D31A069AD118D4
:1093C800049B1B781A469DF81730D31A1A46134681
:1093D8005B001344DA00D31A1A4629F037FC049BC1
:1093E8001B78013BDAB2049B1A700CE09DF8173029
:1093F80001338DF81730049B1B789DF817209A428B
:10940800A8D300E000BF09B05DF804FB00B583B045
:1094180001900B46ADF80230019B002B04D10B499B
:109428004FF48970FDF710F8BDF802201346DB00F1
:109438009B1A019A13440133012205491846FFF784
:10944800DBFE00BF03B05DF804FB00BF6C41050004
:109458009489002000B589B001900B46ADF8023020
:10946800019B002B04D10E494FF48E70FCF7ECFFE2
:10947800BDF802201346DB009B1A019A13445A1CBC
:1094880003AB06211846FDF747FB03AB012205494C
:109498001846FFF733FF00BF09B05DF804FB00BFB3
:1094A8006C4105009489002000B583B00190019BB0
:1094B800002B04D107494FF49770FCF7C5FF019BB7
:1094C8000133002204491846FFF796FE00BF03B097
:1094D8005DF804FB6C410500EC87002008B540F2FC
:1094E800A5120021024829F081FB00BF08BD00BF7A
:1094F800EC87002000B597B04FF6FF700BF03AF9F3
:109508000346ADF8563040F2A5120021144829F060
:109518006DFB19E06A46BDF85630114618460BF047
:1095280089F91490149B002B06D16B461233022242
:109538000B491846FFF760FEBDF8563018460BF089
:1095480019F90346ADF85630BDF856304FF6FF729C
:109558009342DFD100BF00BF17B05DF804FB00BF26
:109568003C8B002000B583B00BF092F90190019B71
:109578000093009B002B05D0074A4FF4AF71009869
:1095880015F0C6F840F2A5120021044829F02EFB78
:1095980000BF03B05DF804FB6C4105003C8B002064
:1095A800024B01221A7000BF704700BFE8870020F5
:1095B80000B585B001900B468DF803301346ADF821
:1095C80000309DF803308DF80C309DF803308DF88D
:1095D8000D30BDF8002003AB11461846FCF7A0FF7C
:1095E80003AB1846FDF762FA0346044A08210198BE
:1095F8001BF024FE00BF05B05DF804FBF841050030
:1096080082B00190019B50221A80019B4FF4C872CE
:109618005A80019B05229A80019B4FF41B72DA80C5
:1096280000BF02B07047000000B58BB003900291F4
:1096380000238DF8273036E09DF8272013465B007D
:109648001344DA001344029A13441B78002B25D0E4
:10965800194A082103981BF0F1FD9DF827201346AD
:109668005B001344DA001344029A13445A1C05ABF6
:1096780006211846FDF750FA9DF8272013465B008F
:109688001344DA001344029A1344073305AA0093DB
:1096980013460A4A082103981BF0D0FD9DF827308D
:1096A80001338DF827309DF82730132BC4D900BF1C
:1096B80000BF0BB05DF804FB144205001C42050016
:1096C80000B58DB00390019200930B46ADF80A30B7
:1096D8000198FDF723FC0346ADF82E30BDF82E3077
:1096E80003991846FFF736FD034683F00103DBB202
:1096F800002B4DD106AB0C220021184629F076FA32
:109708000098FCF731FF0346ADF82C30BDF82C303B
:10971800002B05D1204A022103981BF08FFD38E069
:10972800BDF80A30ADF82A30BDF82A30DBB28DF822
:109738001430BDF82A301B0A9BB2DBB28DF8153005
:1097480002238DF8293001238DF81830BDF82C300C
:10975800ADF81A309DF829309BB2ADF81E3005AB34
:1097680008930023ADF81C3001238DF8193006AAA0
:10977800BDF82E3011461846FFF7E8FC0990099B02
:10978800002B06D0054A022103981BF057FD00E084
:1097980000BF0DB05DF804FB2442050070420500CF
:1097A80000B58BB00590049103920598FFF791FCE2
:1097B8000346002B05D00022002105981BF06AFE05
:1097C80052E007AB02220021184629F00FFA284A76
:1097D800082105981BF032FD00238DF827303CE066
:1097E8009DF8272013465B001344DA00D21A214B58
:1097F80013441846FDF792FB0346ADF8243007AA38
:10980800BDF8243011461846FFF78CFC0890089BD9
:10981800002B05D0184A022105981BF00FFD23E004
:109828009DF827109DF8272013465B001344DA00A3
:10983800D21A104B13449DF81C20C2F30312D2B263
:10984800019200930B460D4A082105981BF0F6FC7F
:109858009DF8273001338DF82730064B93F8A43153
:109868009DF827209A42BBD30BB05DF804FB00BFDC
:10987800BC42050094890020D0420500F44205004E
:1098880000B587B0059004910392049B012B05D085
:109898000598FFF71EFC0346002B05D00022002187
:1098A80005981BF0F7FD09E0039B04331B68009340
:1098B800044B054A022105981BF0C0FC07B05DF86F
:1098C80004FB00BF104305002443050000B58BB01E
:1098D800039002910192FFF72BF9FFF781F9FFF747
:1098E80025FC09900998FFF74FFC05AB08220021D9
:1098F800184629F07BF901238DF8143002238DF8DE
:1099080015301E23ADF816300023069305AB184614
:10991800FFF7F4FB0990099B0893089B002B05D0DF
:109928000D4A40F22D21089814F0F2FE032200217E
:109938000020FFF7DFFB0990099B0793079B002B8B
:1099480005D0054A40F23121079814F0E1FE00BF26
:109958000BB05DF804FB00BF6C41050000B589B091
:10996800039002910192FFF7E3F8FFF739F9FFF747
:10997800DDFB07900798FFF707FC04AB08220021DE
:10998800184629F033F900238DF8103001238DF89B
:1099980011304FF46173ADF812300023059304AB16
:1099A8001846FFF7ABFB0790079B0693069B002B17
:1099B80005D0054A40F24E21069814F0A9FE00BFD2
:1099C80009B05DF804FB00BF6C41050000B587B025
:1099D800059004910392049B012B05D00598FFF78D
:1099E80078FB0346002B05D00022002105981BF0C8
:1099F80051FD09E0039B04331B680093044B054A9F
:109A0800022105981BF01AFC07B05DF804FB00BFA3
:109A1800104305002C43050000B587B00390029160
:109A28000192FCF769FD0346002B1BD0FCF772FD81
:109A38000346002201211846FFF770FB0590059B9D
:109A48000493049B002B05D00B4A4FF41B71049818
:109A580014F05EFEFCF756FD084A082103981BF037
:109A6800EDFB04E0064A022103981BF0E7FB00BF68
:109A780007B05DF804FB00BF6C41050030430500EA
:109A88004043050000B587B0039002910192FCF7AE
:109A980033FD0346002B1BD0FCF73CFD0346002298
:109AA80000211846FFF73AFB0590059B0493049B99
:109AB800002B05D00B4A40F28921049814F028FEA7
:109AC800FCF720FD084A082103981BF0B7FB04E0C7
:109AD800064A022103981BF0B1FB00BF07B05DF8EE
:109AE80004FB00BF6C4105008043050040430500AE
:109AF80000B587B0059004910392049B012B05D013
:109B08000598FFF7E6FA0346002B05D0002200214E
:109B180005981BF0BFFC09E0039B04331B68009306
:109B2800044B054A022105981BF088FB07B05DF835
:109B380004FB00BF104305002443050000B589B0AD
:109B4800039002910192029B012B05D00398FFF725
:109B5800C0FA0346002B05D00022002103981BF011
:109B680099FC2DE00123ADF81E30019B04331B68DE
:109B78001846FDF7D3F90346ADF81C30BDF81C3084
:109B880003991846FFF7E6FA034683F00103DBB2B0
:109B9800002B14D1BDF81E10BDF81C300022184649
:109BA800FFF7C8FA0690069B0593059B002B07D084
:109BB800054A4FF43F71059814F0AAFD00E000BF74
:109BC80009B05DF804FB00BF6C41050000B589B021
:109BD800039002910192029B012B05D00398FFF795
:109BE80078FA0346002B05D00022002103981BF0C9
:109BF80051FC2FE0019B04331B681846FDF78EF9D2
:109C08000346ADF81E30BDF81E3003991846FFF71D
:109C1800A1FA034683F00103DBB2002B19D1019BA3
:109C280008331B68BDF81E2011461846FCF714FEC1
:109C38000690BDF81E3006991846FFF77FFA059082
:109C4800059B002B06D0054A022103981BF0F6FA63
:109C580000E000BF09B05DF804FB00BF90430500B9
:109C680000B58BB0059004910392049B012B05D09D
:109C78000598FFF72EFA0346002B05D00022002195
:109C880005981BF007FC42E0039B04331B68184649
:109C9800FDF744F90346ADF82630BDF8263005999E
:109CA8001846FFF757FA034683F00103DBB2002B8F
:109CB8002CD1039B08331B681846FCF77FFD03462D
:109CC800ADF82430BDF82430002B0AD1039B0833AB
:109CD8001B6800930F4B104A022105981BF0AEFA3F
:109CE80015E0BDF82410BDF8263000221846FFF70D
:109CF80029FA0890089B0793079B002B07D0074A6F
:109D080040F24931079814F003FD00E000BF0BB0A2
:109D18005DF804FBC4430500244305006C410500BD
:109D280000B593B0059004910392049B012B05D0D4
:109D38000598FFF7CEF90346002B05D00022002135
:109D480005981BF0A7FBA5E0049B9BB2043BADF86C
:109D580044300BAB0C220021184628F047FF039B28
:109D680004331B684D49184628F092FE0346002B21
:109D780003D102238DF82C3018E0039B04331B68B1
:109D88004749184628F084FE0346002B03D10123D7
:109D98008DF82C300AE0039B04331B680093414B79
:109DA800414A022105981BF049FA73E0039B0833E6
:109DB8001B681846FDF7B2F80346ADF84230BDF807
:109DC800423005991846FFF7C5F9034683F00103A9
:109DD800DBB2002B5DD1039B0C331B681846FCF7E4
:109DE800EDFC0346ADF84030BDF84030002B0AD1F9
:109DF800039B0C331B6800932C4B2B4A02210598BC
:109E08001BF01CFA46E0BDF84030ADF82E30BDF826
:109E18004430ADF8323006AB0D930023ADF8303046
:109E280001238DF82D3000238DF8473016E09DF87A
:109E3800473004339B00039A13441B68184628F0E4
:109E48003BFB02469DF84730D2B248336B4403F8D7
:109E5800302C9DF8473001338DF847309DF8473056
:109E68009BB2BDF844209A42E1D80BAABDF8423013
:109E780011461846FFF76AF90F900F9B0E930E9B39
:109E8800002B07D00A4A40F293310E9814F040FC98
:109E980000E000BF13B05DF804FB00BF00440500FC
:109EA800084405001043050024430500C443050089
:109EB8006C41050000B587B0059004910392049B9E
:109EC800012B05D00598FFF704F90346002B05D0B0
:109ED8000022002105981BF0DDFA09E0039B0433FA
:109EE8001B680093044B054A022105981BF0A6F94C
:109EF80007B05DF804FB00BF1043050024430500CC
:109F080000B585B0039002910192019B04331A6851
:109F1800019B08331B6801210398FFF7D1FB00BFA1
:109F280005B05DF804FB00B585B00390029101927D
:109F3800019B04331A68019B08331B6800210398AE
:109F4800FFF7BEFB00BF05B05DF804FB00B587B0A6
:109F5800059004910392049B012B05D00598FFF707
:109F6800B8F80346002B05D00022002105981BF005
:109F780091FA09E0039B04331B680093044B054ADC
:109F8800022105981BF05AF907B05DF804FB00BFE1
:109F9800104305002443050000B585B003900291E5
:109FA8000192019B04331A68019B08331B68022144
:109FB8000398FFF785FB00BF05B05DF804FB00B50B
:109FC80085B0039002910192019B04331A68019BAA
:109FD80008331B6800210398FFF772FB00BF05B028
:109FE8005DF804FB10B586B0039002910192029BC4
:109FF800032B05D0254A022103981BF01FF943E0E3
:10A0080000238DF8173014E0019B08331A689DF877
:10A01800173013441B78303B092B05D91C4A022101
:10A0280003981BF00BF92FE09DF8173001338DF8DA
:10A0380017309DF81740019B08331B68184628F015
:10A0480073FD03469C42DFD3019B04331B6818460B
:10A05800FCF764FF0346ADF81430BDF814300399DB
:10A068001846FFF777F8034683F00103DBB2002BAD
:10A0780009D1019B08331B68BDF814201146184606
:10A08800FCF73EFC00E000BF06B010BD1044050020
:10A098002844050000B587B0039002910192019B06
:10A0A80004331B681846FCF739FF0346ADF8163031
:10A0B800BDF8163003991846FFF74CF8034683F0AD
:10A0C8000103DBB2002B07D1BDF816301A46012177
:10A0D8000398FFF76DFA00E000BF07B05DF804FBD6
:10A0E80000B587B0039002910192019B04331B686D
:10A0F8001846FCF713FF0346ADF81630BDF81630C6
:10A1080003991846FFF726F8034683F00103DBB2EC
:10A11800002B07D1BDF816301A4602210398FFF725
:10A1280047FA00E000BF07B05DF804FB00B587B050
:10A13800059004910392049B012B05D00598FEF726
:10A14800C8FF0346002B05D00022002105981BF00C
:10A15800A1F909E0039B04331B680093044B054AEB
:10A16800022105981BF06AF807B05DF804FB00BFF0
:10A17800104305002443050000B587B005900491FD
:10A188000392049B012B05D00598FEF7A2FF034616
:10A19800002B05D00022002105981BF07BF909E06F
:10A1A800039B04331B680093044B054A022105985E
:10A1B8001BF044F807B05DF804FB00BF104305002E
:10A1C8002443050010B586B0039002910192029BCA
:10A1D800022B05D01E4A022103981BF02FF835E008
:10A1E8000398FEF776FF0346002B05D000220021D6
:10A1F80003981BF04FF929E000238DF8173014E07D
:10A20800019B04331A689DF8173013441B78303BC0
:10A21800092B05D90F4A022103981BF00FF815E006
:10A228009DF8173001338DF817309DF81740019BC2
:10A2380004331B68184628F077FC03469C42DFD39A
:10A24800019B04331B681846FCF7BCFB06B010BD25
:10A25800104405004844050010B588B005900491E5
:10A268000392049B022B05D02B4A022105981AF071
:10A27800E5FF4FE000238DF81F3014E0039B043303
:10A288001A689DF81F3013441B78303B092B05D9F9
:10A29800224A022105981AF0D1FF3BE09DF81F30B1
:10A2A80001338DF81F309DF81F40039B04331B6852
:10A2B800184628F039FC03469C42DFD3039B04333D
:10A2C8001B68184628F0F8F803464FF47A7202FB28
:10A2D80003F3134A82FB03125212DB17D31AADF8A9
:10A2E8001C30BDF81C30032B04D9BDF81C30B3F565
:10A2F800206F0BD94FF44863019306230093094B51
:10A30800094A022105981AF099FF03E0074ABDF8A7
:10A318001C30138008B010BD1044050060440500CF
:10A32800AD8BDB6884440500B0440500487C002000
:10A3380010B588B0059004910392049B022B05D0B8
:10A348002B4A022105981AF079FF4FE000238DF877
:10A358001F3014E0039B04331A689DF81F30134420
:10A368001B78303B092B05D9224A022105981AF09F
:10A3780065FF3BE09DF81F3001338DF81F309DF8D5
:10A388001F40039B04331B68184628F0CDFB034687
:10A398009C42DFD3039B04331B68184628F08CF8D3
:10A3A80003464FF47A7202FB03F3134A82FB03124B
:10A3B8005212DB17D31AADF81C30BDF81C30032B32
:10A3C80004D9BDF81C30B3F5206F0BD94FF448639E
:10A3D800019306230093094B094A022105981AF0B4
:10A3E8002DFF03E0074ABDF81C30538008B010BDAC
:10A3F80010440500C0440500AD8BDB68E844050047
:10A40800B0440500487C002010B588B00590049140
:10A418000392049B022B05D0234A022105981AF0C7
:10A428000DFF3FE000238DF81F3014E0039B043339
:10A438001A689DF81F3013441B78303B092B05D947
:10A448001A4A022105981AF0F9FE2BE09DF81F30F0
:10A4580001338DF81F309DF81F40039B04331B68A0
:10A46800184628F061FB03469C42DFD3039B043364
:10A478001B68184628F020F80346ADF81C30BDF8D4
:10A488001C30B3F5FA7F09D340F2F3130093084B5D
:10A49800084A022105981AF0D1FE03E0064ABDF8E1
:10A4A8001C30938008B010BD104405001445050009
:10A4B8003445050058450500487C002010B588B093
:10A4C800059004910392049B022B05D0404A022177
:10A4D80005981AF0B3FE79E000238DF81F3014E0D8
:10A4E800039B04331A689DF81F3013441B78303BD4
:10A4F800092B05D9374A022105981AF09FFE65E015
:10A508009DF81F3001338DF81F309DF81F40039BC5
:10A5180004331B68184628F007FB03469C42DFD328
:10A52800039B04331B68184627F0C6FF0346ADF8A3
:10A538001C30BDF81C30284A82FB03129210DB172E
:10A54800D31AADF81A30254B9B8801339AB2234BA6
:10A558005B88194640F2E24301FB03F3204981FB83
:10A5680003018911DB17CB1A9BB212FB03F39BB2D1
:10A578005B00ADF81830BDF81A30002B04D0BDF8D8
:10A588001A30B3F5A07F0BD94FF4486301930A231F
:10A598000093144B144A022105981AF04FFE15E057
:10A5A800BDF81C20BDF818309A420BD8BDF81830F9
:10A5B80001930E4B00930E4B0E4A022105981AF098
:10A5C8003DFE03E0054ABDF81A30D38008B010BD3F
:10A5D800104405006045050067666666487C0020F3
:10A5E800D34D621088450500B045050008460500B2
:10A5F800C0450500FC45050000B587B003900291F1
:10A608000192029B022B05D01B4A022103981AF0E3
:10A6180015FE2EE0019B04331B681846FCF77EFCF0
:10A628000346ADF81630BDF8163003991846FEF704
:10A6380091FD034683F00103DBB2002B18D1BDF86E
:10A6480016300E491846FEF75DFD0490049B002B5A
:10A6580008D10B4A082103981AF0F0FD0748FEF7C5
:10A66800CFFF06E0074A022103981AF0E7FD00E051
:10A6780000BF07B05DF804FB10440500487C0020CB
:10A68800384605007046050000B589B0059004916C
:10A698000392049B012B1AD90598FEF71AFD03466D
:10A6A800002B05D00022002105981AF0F3FE15E0D2
:10A6B800039B1A68039B04331B680193094B00939F
:10A6C8001346094A022105981AF0B8FD06E0FBF77F
:10A6D80001FF079007990598FEF7A6FF09B05DF8F6
:10A6E80004FB00BFA84605009C46050000B587B0DE
:10A6F800059004910392049B012B05D00598FEF761
:10A70800E8FC0346002B05D00022002105981AF02A
:10A71800C1FE09E0039B04331B680093044B054A00
:10A72800022105981AF08AFD07B05DF804FB00BF06
:10A73800104305002443050000B5A1B00390029121
:10A748000192029B012B11D90398FEF7C2FC034624
:10A75800002B05D00022002103981AF09BFE4BE045
:10A76800274A022103981AF069FD45E009F0F0FF35
:10A778000346244A082103981AF060FD4FF6FF703B
:10A7880009F0F8FF0346ADF87E302FE0BDF87E30C3
:10A798001D4A082103981AF051FD04AABDF87E301D
:10A7A800114618460AF046F81E901E9B1D931D9BE5
:10A7B800002B05D0154A40F291511D9813F0A8FFBF
:10A7C800BDF87E30184609F0D5FF0346ADF87E3057
:10A7D80004AB03F1120218AB06211846FCF79CF9EA
:10A7E80018AB0B4A082103981AF028FDBDF87E30F3
:10A7F8004FF6FF729342C9D121B05DF804FB00BF48
:10A8080010440500B8460500CC4605006C4105001B
:10A818002C43050000B589B0059004910392049B70
:10A82800012B05D00598FEF754FC0346002B05D0F4
:10A838000022002105981AF02DFEA5E0039B0433A1
:10A848001B685349184628F023F90346002B05D105
:10A85800504A137843F0040313701EE0039B04333B
:10A868001B684D49184628F013F90346002B05D1FB
:10A87800484A13786FF3820313700EE0039B1A683B
:10A88800039B04331B680193444B00931346444ACB
:10A89800022105981AF0D2FC76E0039B08331B6866
:10A8A8001846FCF73BFB03461A463E4B1A803D4BC5
:10A8B8001B8805991846FEF74DFC034683F00103F3
:10A8C800DBB2002B5FD1039B0C331B68364918465B
:10A8D80028F0DEF80346002B0BD12E4A137843F0FC
:10A8E800020313702B4A1378042161F306131370C3
:10A8F8000AE0284A13786FF341031370254A137846
:10A90800032161F306131370039B0C331B6827495B
:10A91800184628F0BDF80346002B0FD11D4A1378BE
:10A9280043F0020313701B4A137843F0800313703B
:10A93800184A1378032161F306131370154809F0B8
:10A9480075FE0790079B0693069B002B05D0184AB7
:10A9580040F2D551069813F0DBFE124B1B880021FC
:10A96800184609F07BFE0790079B002B05D0114A7B
:10A97800022105981AF062FC06E00F4A08210598A2
:10A988001AF05CFC00E000BF09B05DF804FB00BFF2
:10A99800E0460500407C0020E8460500F04605003A
:10A9A8009C460500EA870020004705000847050087
:10A9B8006C4105000C4705003C47050000B589B00F
:10A9C800039002910192029B022B05D93B4A022176
:10A9D80003981AF033FC6EE0029B012B05D0039814
:10A9E800FEF777FB0346002B05D0002200210398D1
:10A9F8001AF050FD5FE0324B1B7883F00103DBB2A5
:10AA0800002B05D02F4A022103981AF017FC52E0B8
:10AA1800019B04331B68184628F086F80346062B6A
:10AA280006D0294B294A022103981AF007FC42E074
:10AA380000238DF81F3021E0019B04331A689DF82C
:10AA48001F3013441B78303B092B05D9204A0221BB
:10AA580003981AF0F3FB2EE0019B04331A689DF863
:10AA68001F301A449DF81F30127820336B4403F8C6
:10AA7800102C9DF81F3001338DF81F309DF81F30C2
:10AA8800052BD9D9134B1B8804AA01211846FEF7B8
:10AA980045FB06900A4B00221A70069B002B05D036
:10AAA8000D4A022103981AF0C9FB04E00B4A082159
:10AAB80003981AF0C3FB09B05DF804FB10440500C5
:10AAC800E88700204C4705005C470500F441050075
:10AAD80074470500EA87002094470500A847050049
:10AAE80000B58FB0039002910192029B012B05D013
:10AAF8000398FEF7EEFA0346002B05D0002200214A
:10AB080003981AF0C7FC5AE005AB14220021184636
:10AB180028F06CF89DF82830012262F303038DF8C1
:10AB280028309DF82830012262F307138DF8283069
:10AB380001238DF8373022E09DF837309B00019AC9
:10AB480013441A6805AB1146184628F0D1F89DF849
:10AB58003720029B013B9A4217D005AB184627F0D5
:10AB6800E3FF03461A4605AB134416491A460B463B
:10AB78001B8813809DF8373001338DF837309DF8E6
:10AB88003730029A9A42D7D800E000BF05AB184682
:10AB980027F0CAFF03469AB205A90AAB1846FEF782
:10ABA800B9FA0C90FEF7D2F90C9B0B930B9B002B78
:10ABB80005D0054A40F246610B9813F0A9FD0FB085
:10ABC8005DF804FBC04705006C41050000B587B07F
:10ABD800039002910192029B012B05D9124A02218E
:10ABE80003981AF02BFB1CE0FDF7FAFF00F076FD46
:10ABF80005900598FEF7C8FA0C4A082103981AF040
:10AC08001DFBFDF7A3FF00F05FFD0590059B049376
:10AC1800049B002B05D0064A40F25C61049813F0AF
:10AC280077FD07B05DF804FB10440500C447050034
:10AC38006C41050000B587B0039002910192029B18
:10AC4800012B05D90A4A022103981AF0F7FA0CE0F9
:10AC5800FDF7C6FF00F042FD05900598FEF794FA4F
:10AC6800044A082103981AF0E9FA07B05DF804FBD2
:10AC780010440500DC47050000B587B00590049135
:10AC88000392049B012B05D00598FEF722FA034690
:10AC9800002B05D00022002105981AF0FBFB09E0E3
:10ACA800039B04331B680093044B054A0221059853
:10ACB8001AF0C4FA07B05DF804FB00BF10430500A2
:10ACC8002443050000B587B0059004910392049BC6
:10ACD800012B0ED0039B043B1A68039B1B680A498F
:10ACE800019100931346094A022105981AF0A6FA21
:10ACF80006E0FDF71DFF064A082105981AF09EFA9E
:10AD080007B05DF804FB00BF10440500F4470500D8
:10AD18000048050000B587B0059004910392049B94
:10AD2800012B0ED0039B043B1A68039B1B680A493E
:10AD3800019100931346094A022105981AF07EFAF8
:10AD480006E0FDF7B3FE064A082105981AF076FAE0
:10AD580007B05DF804FB00BF10440500F447050088
:10AD68001048050000B587B0059004910392049B34
:10AD7800012B05D00598FEF7ACF90346002B05D04A
:10AD88000022002105981AF085FB09E0039B043393
:10AD98001B680093044B054A022105981AF04EFAE5
:10ADA80007B05DF804FB00BF10430500244305000D
:10ADB80000B587B0039002910192029B012B05D048
:10ADC8000398FEF786F90346002B05D000220021E0
:10ADD80003981AF05FFB36E0029B022B2ED1019BF1
:10ADE80004331B68184627F09FFE0346102B0FD824
:10ADF800019B04331B68184627F05EFB03469BB291
:10AE0800ADF816300DF116031846FCF72DFA1AE0C6
:10AE1800019B04331B68184627F086FE0346112B56
:10AE280005D00A4A022103981AF008FA0BE0019BA0
:10AE380004331B681846FBF737FB04E0044A022179
:10AE480003981AF0FBF907B05DF804FB20480500E9
:10AE58001044050000B589B0059004910392049B45
:10AE6800012B05D00598FEF734F90346002B05D0D1
:10AE78000022002105981AF00DFB3CE0049B022BF0
:10AE880009D9039B1B681D4A00921D4A0221059897
:10AE98001AF0D4F92FE0039B04331B68184627F0F7
:10AEA80043FE0346112B05D0164A022105981AF0D5
:10AEB800C5F920E0039B04331B681846FCF72EF8FD
:10AEC8000346ADF81E30BDF81E3005991846FEF74A
:10AED80041F9034683F00103DBB2002B0AD1BDF828
:10AEE8001E3013211846FEF711F906900698FEF752
:10AEF8004BF900E000BF09B05DF804FB1044050001
:10AF08005C4805002048050000B589B0059004910B
:10AF18000392049B012B05D00598FEF7DAF8034647
:10AF2800002B05D00022002105981AF0B3FA44E05E
:10AF3800049B022B09D9039B1B68214A0092214AD2
:10AF4800022105981AF07AF937E0039B04331B684D
:10AF58001D49184627F09CFD0346002B0AD11B4AC1
:10AF6800137843F004031370194A022105981AF064
:10AF780065F913E0039B04331B681649184627F04C
:10AF880087FD0346002B09D1104A13786FF382031B
:10AF98001370114A022105981AF050F90B4809F06C
:10AFA80045FB0790079B0693069B002B05D00B4A91
:10AFB80040F22371069813F0ABFB09B05DF804FB6F
:10AFC800104405005C480500E0460500407C002070
:10AFD80064480500E8460500904805006C410500F6
:10AFE80000B589B0059004910392049B012B05D00C
:10AFF8000598FEF76EF80346002B05D000220021C5
:10B0080005981AF047FA87E0049B022B09D9039B9D
:10B018001B68434A0092434A022105981AF00EF928
:10B028007AE0039B04331B683F49184627F030FD3C
:10B038000346002B0AD13D4A13786FF306131370A9
:10B048003B4A022105981AF0F9F856E0039B0433AD
:10B058001B683849184627F01BFD0346002B0BD107
:10B06800324A1378022161F306131370324A02211F
:10B0780005981AF0E3F840E0039B04331B682F4956
:10B08800184627F005FD0346002B0BD1274A1378F5
:10B09800012161F306131370294A022105981AF059
:10B0A800CDF82AE0039B04331B682649184627F08D
:10B0B800EFFC0346002B0BD11C4A1378042161F3E3
:10B0C80006131370204A022105981AF0B7F814E005
:10B0D800039B04331B681D49184627F0D9FC034617
:10B0E800002B0AD1114A1378032161F30613137058
:10B0F800174A022105981AF0A1F80C4809F096FAA7
:10B108000790079B0693069B002B05D0114A40F237
:10B118005271069813F0FCFA09B05DF804FB00BF01
:10B12800104405005C480500BC480500407C002030
:10B13800C8480500F04805000049050028490500F1
:10B148003849050060490500704905009C4905001B
:10B15800AC4905006C41050000B587B00590049125
:10B168000392049B012B07D1104A082105981AF075
:10B1780065F8FEF7F7F915E00598FDF7AAFF03460D
:10B18800002B05D00022002105981AF083F909E068
:10B19800039B04331B680093054B064A022105985C
:10B1A8001AF04CF807B05DF804FB00BFD849050059
:10B1B800104305002443050000B59DB0039002919B
:10B1C8000192029B012B05D00398FDF782FF0346ED
:10B1D800002B05D00022002103981AF05BF94DE0FE
:10B1E8004FF6FF7009F0C6FA0346ADF86E303FE03F
:10B1F80004AABDF86E301146184609F01BFB1A90D8
:10B208001A9B1993199B002B05D01E4A40F27C719A
:10B21800199813F07DFA019B04331A6804AB1133B3
:10B2280011461846FBF744FE0346002B18D0BDF81C
:10B238006E30184609F012FB1A901A9B1893189B47
:10B24800002B05D00F4A40F28271189813F060FA6B
:10B25800019B04331B6802220B491846FEF74EF87F
:10B26800BDF86E30184609F085FA0346ADF86E3021
:10B27800BDF86E304FF6FF729342B9D11DB05DF83C
:10B2880004FB00BF6C4105003C8B002082B001909C
:10B2980000910F4B93F8A4311A46019B934208D2B0
:10B2A800019A13465B001344DA00D21A084B134480
:10B2B80000E00023009A1360009B0022DA60009BE4
:10B2C80000229A60009B00225A6000BF02B07047BB
:10B2D8009489002082B0019000910F4B93F8A4311B
:10B2E8001A46019B934208D2019A13465B00134405
:10B2F800DA00D21A084B134400E00023009A1360C6
:10B30800009B0022DA60009B00229A60009B034A9F
:10B318005A6000BF02B07047EC870020F049050072
:10B3280082B0019000910F4B93F8A4311A46019B0B
:10B33800934208D2019A13465B001344DA00D21AEA
:10B34800084B134400E00023009A1360009B00227E
:10B35800DA60009B00229A60009B034A5A6000BF93
:10B3680002B070473C8B0020084A050082B001906B
:10B3780000910F4B93F8A4311A46019B934208D2CF
:10B38800019A13465B001344DA00D21A084B13449F
:10B3980000E00023009A1360009B0022DA60009B03
:10B3A800044A9A60009B00225A6000BF02B07047AE
:10B3B800948900204453050000B583B0084819F06B
:10B3C80061FE0190019B0093009B002B04D0054A6D
:10B3D8006021009813F09CF900BF03B05DF804FBEE
:10B3E800F85905009058050030B58DB0124B02ACE5
:10B3F8001D460FCD0FC495E80F0084E80F00062303
:10B4080002930823039300238DF81C3002A9032319
:10B41800009301230122094819F0F6FD0B900B9BBC
:10B428000A930A9B002B04D0054A83210A9813F03B
:10B438006FF900BF0DB030BD10590500F85905006F
:10B448009058050000B583B00190FBF727F8034634
:10B45800002B03D0FEF742F8FBF742F800BF03B019
:10B468005DF804FB00B583B04FF4804108481DF037
:10B47800D3FE0190019B0093009B002B04D0054A4A
:10B488009921009813F044F900BF03B05DF804FB5C
:10B4980005F103009058050000B585B013F00CFDC8
:10B4A8000390039B0293029B002B04D0154AA5210D
:10B4B800029813F02DF9144A0121144813F03AFDAB
:10B4C8000390039B0193019B002B04D00D4AA821F4
:10B4D800019813F01DF90E4B00224FF42031184645
:10B4E80013F062FD0390039B0093009B002B04D094
:10B4F800044AAB21009813F00BF900BF05B05DF8C2
:10B5080004FB00BF905805004DB40200105A050016
:10B51800A07C002000B583B01CF0D8FC0190019BF2
:10B528000093009B002B04D0044AB521009813F027
:10B53800EFF800BF03B05DF804FB00BF90580500AA
:10B5480000B583B006F048FE0190019B0093009B74
:10B55800002B04D00A4AC121009813F0D9F80948F1
:10B5680019F0DCFD1EF036FB034683F00103DBB265
:10B57800002B01D01CF0C0FC00BF03B05DF804FB39
:10B5880090580500F859050008B5FFF7C3FFFFF705
:10B5980069FFFFF781FFFFF727FFFFF70DFFFDF7B3
:10B5A80083FD00F07DFB00F079F8FDF7A3FF104B59
:10B5B8005B88022B0AD90F4A0F4BD31ADB081B04EE
:10B5C80043F005030D4918461EF07AFA084B5B88CC
:10B5D800022B0AD9074A084BD31ADB081B0443F08D
:10B5E8000503074918461EF06BFAFFF7A9FFFCE7A9
:10B5F8005C7A002014360500BC3505004C5905005E
:10B6080084590500014B1B7818467047D7900020D5
:10B6180082B003468DF80730034A9DF8073013704F
:10B6280000BF02B0704700BFD7900020014B1846FA
:10B63800704700BFB090002000B583B001900B4B5D
:10B648001B78DBB2002B0BD0019B01330622084983
:10B65800184627F02AFB0346002B01D1012300E0FE
:10B668000023184603B05DF804FB00BFAC9000202F
:10B678009590002082B00190064B1B78DBB2002B1E
:10B6880004D0019B044A1A60002300E005231846F1
:10B6980002B07047AC9000209C90002000B583B0A9
:10B6A80000F0FAF80190019B0093009B002B04D056
:10B6B800044A3421009813F02BF800BF03B05DF85A
:10B6C80004FB00BFE45B050000B583B021F038F847
:10B6D8000190019B184603B05DF804FB00B583B0E8
:10B6E80021F048F80190019B184603B05DF804FB6F
:10B6F80080DF704700BF184600B587B001900B4641
:10B708008DF80330002305930DF10B0318460DF057
:10B71800ADFA9DF80B309DF80320934228BF1346DD
:10B728008DF813309DF81330194601980DF0C6FABC
:10B738000590059B0393039B002B04D0054A6821C1
:10B74800039812F0E5FF9DF81330184607B05DF82E
:10B7580004FB00BF745C050084B003468DF8073015
:10B768000023039302E0039B013303939DF8073002
:10B77800039A9A42F7D300BF00BF04B07047000095
:10B7880000B589B00390019200930B468DF80B30F9
:10B79800002307939DF80B30012B02D0022B1ED0FB
:10B7A8001EE010211048FFF7A7FF03468DF8173059
:10B7B8009DF817301846FFF7CFFF0B4820F0B0F977
:10B7C8000790079B0693069B002B04D0074A9D21F0
:10B7D800069812F09DFF064B01221A7000E000BF88
:10B7E80000BF09B05DF804FBDC910020745C050023
:10B7F800D890002000B58BB0002309934FF48073D4
:10B80800059306F0E1FB0990099B0893089B002B20
:10B8180001D0089B22E006F029FC0790079B002B2B
:10B8280001D10E231AE0012302930E4B019305ABBD
:10B8380000930D4B079A0D49002020F049F9099013
:10B84800099B0693069B002B01D0069B06E0059BEF
:10B858001946054820F0E0FE0990099B18460BB0F0
:10B868005DF804FBEC910020DC900020DC910020C6
:10B8780000B583B00346ADF80630FFF7C3FE0346B4
:10B88800002B03D0FFF7D2FE034600E00023184642
:10B8980003B05DF804FB000000B585B000230393F6
:10B8A80000200DF069F90390039B082B09D0039B36
:10B8B800852B06D0039B0293029B002B01D0029B91
:10B8C80019E00F4806F0FEFB00210E4820F072FE3A
:10B8D8000390039B0193019B002B01D0019B0AE07D
:10B8E800FFF788FF0390039B0093009B002B01D078
:10B8F800009B00E0039B184605B05DF804FB00BF01
:10B9080079B8020089B7020000B587B00346ADF8E0
:10B9180006300023059306F0C1FA0590059B0493B1
:10B92800049B002B01D0049B18E006F04DFB05900A
:10B93800059B0393039B002B01D0039B0EE006F0AD
:10B9480095FB0346184620F051F90590059B029394
:10B95800029B002B01D0029B00E00023184607B091
:10B968005DF804FB00B58BB00190009100230993AA
:10B97800019B04330893019B1B88172B02D0192BBA
:10B9880042D06EE0FFF73EFE0346002B23D002AB09
:10B998001846FFF76FFE0990099B0493049B002B40
:10B9A80005D0324A40F22F11049812F0B1FE089BDC
:10B9B8001B88029A02211846FFF79AFE0990099BF4
:10B9C8000393039B002B49D0284A4FF49A7103989C
:10B9D80012F09EFE42E0264B1B78DBB2002B3DD0D6
:10B9E800019B9B88234A02211846FFF781FE099094
:10B9F800099B0593059B002B30D01C4A4FF49E7180
:10BA0800059812F085FE29E04FF6FF70FFF77CFFDE
:10BA18000990099B0793079B002B05D0134A4FF405
:10BA2800A271079812F074FE0020FFF7F1FD104B89
:10BA38001B78DBB2002B02D00D4B00221A7020F0CD
:10BA480099FE0990099B0693069B002B08D0074A8C
:10BA580040F24D11069812F05BFE01E000BF00E0D5
:10BA680000BF00BF0BB05DF804FB00BF745C0500AD
:10BA7800D8900020DC91002000B585B0019000230B
:10BA88000293FFF7BFFD0346002B01D0029B71E034
:10BA98003A4B1B78DBB2002B6BD0019B9B6803935E
:10BAA800039B1B7803F00403DBB2002B15D0344A48
:10BAB800137843F002031370314A13786FF3C713F6
:10BAC80013702F4A137843F0040313702C4A137829
